:020000040800F2
:100000008007002035020008A31700085B170008CE
:10001000A1170008A3050008391B00080000000014
:10002000000000000000000000000000A71700080A
:100030003906000800000000A5170008A9170008ED
:100040004F0200084F0200084F0200084F0200084C
:100050004F0200084F0200084F0200084F0200083C
:100060004F0200084F0200084F0200084F0200082C
:100070004F0200084F0200084F0200084F0200081C
:10008000A5050008B10500084F02000800000000A7
:100090000000000000000000000000004F02000807
:1000A0004F0200084F0200084F0200084F020008EC
:1000B0004F0200084F0200084F0200084F020008DC
:1000C0004F0200084F0200084F0200084F020008CC
:1000D0004F0200084F0200082D1B0008000000001E
:1000E0004F0200084F0200084F0200080000000005
:1000F0000000000000000000000000004F020008A7
:10010000000000004F0200084F0200084F020008E4
:1001100000000000000000000000000000000000DF
:100120004F0200084F0200084F0200084F0200086B
:100130004F02000800000000000000000000000066
:100140000000000000000000000000004F02000856
:100150004F0200084F0200084F0200084F0200083B
:100160004F0200084F0200080000000000000000DD
:10017000000000000000000000000000000000007F
:10018000000000004F020008000000000000000016
:100190004F02000800F002F800F03CF80AA090E8D6
:1001A000000C82448344AAF10107DA4501D100F032
:1001B00031F8AFF2090EBAE80F0013F0010F18BFC3
:1001C000FB1A43F001031847C01C0000E01C0000AC
:1001D000103A24BF78C878C1FAD8520724BF30C873
:1001E00030C144BF04680C60704700000023002445
:1001F00000250026103A28BF78C1FBD8520728BF37
:1002000030C148BF0B6070471FB501F0F5FD1FBD41
:1002100010B510BD00F08BF91146FFF7F5FF01F0A6
:100220009DFC00F0A9F903B4FFF7F2FF03BC00F056
:10023000B1F900000948804709480047FEE7FEE79A
:10024000FEE7FEE7FEE7FEE7FEE7FEE7FEE7FEE786
:1002500004480549054A064B704700002D18000860
:100260009501000880010020800700208003002005
:100270008003002053EA020C00F069802DE9F04B66
:100280004FF00006002B1FBFB3FA83F503FA05F405
:1002900024FA05F65E4012BF1643B2FA82F502FA5E
:1002A00005F4C5F120051EBF22FA05FC44EA0C0442
:1002B000203556EA044C4FEA144418BF641C4FF032
:1002C00000084FF00009904271EB030C39D300296C
:1002D00019BFB1FA81F701FA07F6B0FA80F700FA10
:1002E00007F6C7F120071EBF20FA07FC46EA0C06F6
:1002F0002037B6FBF4FCA7EB0507103F07F01F0BF8
:10030000CBF120060CFA0BFB2CFA06F644BFB346E1
:100310000026202FA4BF5E464FF0000B5BEA060CC0
:1003200008BF4FF0010B19EB0B09ABFB027C48EB4C
:100330000608C01B06FB02CC0BFB03CC71EB0C01C7
:10034000C1E70B46024641464846BDE8F08B13B56F
:100350004FF000004FF00001AFF30080BDE81C40FB
:10036000704710B5431C02E010F8011B71B1810702
:10037000FAD14FF0013202C88C1A8C4314EAC21130
:10038000F9D0C01A0A0603D0C01E10BDC01A10BD95
:100390000A0401D0801E10BD0902FCD0401E10BD11
:1003A00010B5203AC0F00B80B1E81850203AA0E810
:1003B0001850B1E81850A0E81850BFF4F5AF5FEA44
:1003C000027C24BFB1E81850A0E8185044BF18C9F7
:1003D00018C0BDE810405FEA827C24BF51F8043B9E
:1003E00040F8043B08BF7047D20728BF31F8023BF2
:1003F00048BF11F8012B28BF20F8023B48BF00F886
:10040000012B704702F0FF0343EA032242EA024253
:1004100000F06DB84FF0000200B5134694469646C2
:10042000203922BFA0E80C50A0E80C50B1F1200107
:10043000BFF4F7AF090728BFA0E80C5048BF0CC0B5
:100440005DF804EB890028BF40F8042B08BF704713
:1004500048BF20F8022B11F0804F18BF00F8012B85
:10046000704700004FF0013C50F8042B51F8043B5A
:100470009A4221D1A2EB0C03934313EACC1317D178
:1004800050F8042B51F8043B9A4215D1A2EB0C030F
:10049000934313EACC130BD150F8042B51F8043BCF
:1004A0009A4209D1A2EB0C03934313EACC13DBD09D
:1004B0004FF00000704700BFD01A01BAB1FA81F1C5
:1004C00001F0180122FA01F0CB40C1F12001DBB2AA
:1004D000C0B2C01A2CFA01F3D11A914311EAC31128
:1004E000E6D170477047704770474FF0000204290B
:1004F000C0F0128010F0030C3FF48EAFCCF1040C6E
:10050000BCF1020F18BF00F8012BA8BF20F8022B86
:10051000A1EB0C01FFF780BF5FEAC17C24BF00F8AC
:10052000012B00F8012B48BF00F8012B70477546DE
:1005300000F02CF8AE4605006946534620F007004F
:10054000854618B020B5FFF783FEBDE820404FF088
:1005500000064FF000074FF000084FF0000B21F0AD
:100560000701AC46ACE8C009ACE8C009ACE8C0097A
:10057000ACE8C0098D46704710B50446AFF3008063
:100580002046BDE81040FFF74EBE0000004870470F
:100590002001002001491820ABBEFEE72600020022
:1005A0007047FEE7014800F0A5B800006000002099
:1005B000014800F09FB80000C00000200168182327
:1005C000CAB2103AB2FBF3F2054B6FF30901032AEA
:1005D0009B5CC36500D9091D816508467047000012
:1005E000021E000810B5014600208B698A6A4FF090
:1005F000C07453B1B3F5005F15D072B1012A0CD0AD
:10060000022A0AD0032A09D104E01AB1012A06D02D
:10061000022A03D1C96AC90100D5012010BDC96AE7
:10062000A142FAD010BD002AF7D0012AF2D0022A46
:10063000F3D0032AF3D010BD704772B6FEE72DE960
:10064000F0410446876D00F091FA064694F83500B3
:100650000025022806D08020606584F834500120EF
:10066000BDE8F0812068016821F016010160206872
:10067000416921F080014161206C08B9A06C20B172
:100680002068016821F0080101602068016821F0FC
:10069000010101600CE000F069FA801B052807D910
:1006A00020206065032084F8350084F83450D7E7B3
:1006B00020680068C007EED194F85C103F208840A5
:1006C000B860012084F8350084F834500020C7E772
:1006D00090F83510022903D0802141650120704730
:1006E000052180F835100068016821F001010160E2
:1006F000002070472DE9F84304464FF00009CDF87B
:10070000009063484FF41651A56D0068B0FBF1F7F7
:100710002E6894F85C10082000FA01F131420FD0E5
:1007200021680A6852070BD50A6822F004020A60A1
:1007300094F85C108840A860606D40F0010060652E
:1007400094F85C104FF0010808FA01F0304208D02C
:1007500021684969090604D5A860606D40F002006F
:10076000606594F85C1004208840304208D021680D
:100770000968890704D5A860606D40F004006065D1
:1007800094F85C1010208840304218D02168096825
:10079000090714D5A86020680168490304D50068DA
:1007A000000308D5A16C07E00168C90503D40168FE
:1007B00021F008010160216C09B12046884794F8B6
:1007C0005C1020208840304231D021680968C90679
:1007D0002DD5A86094F8350005282068016806D05A
:1007E000490347D5006800031DD4616C1CE021F06B
:1007F000160101602068416921F080014161206C8F
:1008000008B9A06C20B12068016821F008010160DE
:1008100094F85C103F208840A86084F8358084F804
:100820003490216D1FE0E16B09B120468847606D6F
:1008300000282BD0606DC00714D0052084F8350047
:100840002068016821F0010101600098401C0090BF
:10085000B84203D820680068C007F6D184F8358014
:1008600084F83490E16C002910D001B02046BDE836
:10087000F04308470168C905D5D4016821F010018B
:10088000016084F8358084F83490CCE7BDE8F883C3
:10089000140000202DE9F041044600F067F90646F7
:1008A0005CB1022084F83500002584F834502068BB
:1008B000016821F0010101600DE00120BDE8F08137
:1008C00000F054F9801B052805D92020606503201D
:1008D00084F83500F2E720680068C007F0D122688C
:1008E000116820480140D4E901031843D4E90336D4
:1008F0003343184363691843A3691843E3691843F2
:10090000236A18430843616A042903D1D4E90B130D
:1009100019430843106020684069666A20F00701A7
:1009200030460E43012704280CD1A06A0643E06A32
:1009300040B12046FFF756FE20B14020606584F8A4
:100940003570BAE7206846612046FFF737FE94F815
:100950005C203F2191408160656584F835700020FE
:10096000ACE700003F8010F070B5044600F0FEF8E0
:100970000546601C02D004480078044400F0F6F8F4
:10098000401BA042FAD370BD080000202DE9F84FAB
:10099000DFF8B8A10022012403254FF00F090AF166
:1009A000040BAAF1040E00BF0B6804FA02F63340F0
:1009B000B34273D10F7907F00307012F01D0022F43
:1009C00016D187684FEA420805FA08FC27EA0C07A7
:1009D000D1F80CC00CFA08FC4CEA070CC0F808C0AF
:1009E0004768B7430E79C6F3001696403E4346600B
:1009F0000E79F643B6070DD0C768560005FA06FC17
:100A000027EA0C07D1F808C00CFA06FC4CEA070CE0
:100A1000C0F80CC00E7906F00306022E10D1D608DD
:100A200000EB8608D8F8206057074FEAD76C09FA20
:100A30000CF7BE430F6907FA0CF73743C8F820706C
:100A400006684FEA420C05FA0CF7BE430F7907F02F
:100A5000030707FA0CF7374307604E6816F4403F68
:100A60006DD03B4E376847F480473760366822F0D8
:100A7000030706F480460096364E07EB060CDCF8BA
:100A8000086897073F0F09FA07F826EA0806DFF813
:100A9000C880404503D14FF000081EE04FE0DFF86A
:100AA000BC80404502D14FF0010816E0DFF8B0806D
:100AB000404502D14FF002080FE0DFF8A880404522
:100AC00002D14FF0030808E0DFF89C80404502D1D6
:100AD0004FF0040801E04FF0070808FA07F848EA69
:100AE0000608CCF80888DAF800605746D1F804C048
:100AF0009E435FEACC2C00D51E433E60DBF80060CD
:100B00005F46D1F804C09E435FEA8C2C00D51E439B
:100B10003E60DEF800607746D1F804C09E435FEA8D
:100B20008C3C00D51E433E60084F083F3E68D1F81C
:100B300004C09E435FEACC3C00D51E433E60521C7D
:100B4000102AFFF431AFBDE8F88F0000083C0140E7
:100B500044380240003001400000024000040240DE
:100B600000080240000C024000100240014880686A
:100B70007047000008000020024881680278114494
:100B800081607047080000200B4810B5016841F4EF
:100B900000710160016841F480610160016841F405
:100BA00080710160032000F06FF80F2000F006F85C
:100BB00000F024F8002010BD003C024070B50D4D3F
:100BC00004464FF47A712878B1FBF0F00A490968BD
:100BD000B1FBF0F000F00CFB48B9102C07D200225A
:100BE0002146501E00F030F800206C6070BD0120DE
:100BF00070BD000008000020140000200A4808B55D
:100C0000016841F480410160006800F48040009078
:100C10000548001F016841F080510160006800F044
:100C20008050009008BD000044380240002809DBD5
:100C300000F01F02012191404009800000F1E020F6
:100C4000C0F8001170470000F0B40E4B1B680C4652
:100C5000C3F30223C3F10705042D00D90425191D90
:100C6000072901D2002300E0DB1E012606FA05F168
:100C7000491E214099409E40761E16403143F0BCEB
:100C800000F05BBF0CED00E0064900F007020868C9
:100C90004FF6FF03184040EA0220034A1043086061
:100CA000704700000CED00E00000FA052DE9F04768
:100CB0000E46050065D0DFF81481D8F80000F7B2C1
:100CC00000F00700B04207D288F80070D8F80000A2
:100CD00000F00700B04254D128683D4C810712D57E
:100CE000400703D5206840F4E050206028780007D2
:100CF00003D5206840F4604020602068A96820F097
:100D0000F000084320602878C0072DD0304968687B
:100D10000839012812D0022813D0032811D00968FD
:100D2000890700292DDA216821F0030101432160A0
:100D3000FFF71CFF814641F2883A0EE009688903FB
:100D4000EFE709688901ECE7FFF710FFA0EB090165
:100D5000514502D90320BDE8F0872068696800F09A
:100D60000C00B0EB810FEFD1D8F80010404601F035
:100D70000701B14207D90770006800F00700B042D0
:100D800001D00120E7E72878400705D52068E96809
:100D900020F4E050084320602878000706D520683A
:100DA000296920F4604040EAC100206000F038F872
:100DB0002168084AC1F30311515CC8400649086024
:100DC00006480068FFF7FAFE0020C4E7003C024036
:100DD000083802400A1E0008140000200C00002001
:100DE0000448054900680968044AC1F38221515C3E
:100DF000C840704714000020083802401A1E00083E
:100E00000448054900680968044AC1F34231515C4D
:100E1000C840704714000020083802401A1E00081D
:100E2000154810B5006810F00C02144813D014498E
:100E3000042A0FD0082A0ED10F4C241F22682368E1
:100E400002F03F025B0207D52068C0F38810A0FBC8
:100E5000010106E0084610BD2168C1F38811A1FB1D
:100E600000010023FFF706FA2168C1F30141491C84
:100E70004900B0FBF1F010BD083802400024F40036
:100E800040787D012DE9F84F04006ED02078DFF81E
:100E90004C93C007A9F104054AD009F10400016888
:100EA000C1F38101012908D00068C0F38100022844
:100EB0000AD1D9F80000400206D52868800337D54A
:100EC00060680028E1D033E06068B0F5803F10D062
:100ED000B0F5A02F286810D020F480302860286852
:100EE00020F4802028606068A8B1FFF73FFE064626
:100EF0000DE0286840F48030F4E740F4802028605A
:100F0000F7E700BFFFF732FE801B642873D828681C
:100F10008003F7D50CE0FFF729FE064605E000BF89
:100F2000FFF724FE801B6428F0D828688003F7D4DC
:100F30002078DFF8AC8280074FF0000A3ED5A74842
:100F4000001D016811F00C0F08D00068C0F381008B
:100F500002280BD1D9F80000400207D42868800786
:100F600016D5E068012800D112E033E1E068B8B19D
:100F70000120C8F80000FFF7F9FD064605E000BFB4
:100F8000FFF7F4FD801B0228C0D828688007F7D53A
:100F90002868216920F0F80040EAC10028600DE0CF
:100FA000C8F800A0FFF7E2FD064604E0FFF7DEFD0B
:100FB000801B02281FD828688007F7D420780007F4
:100FC00022D5864F87486169703771B10121016070
:100FD000FFF7CCFD064604E0FFF7C8FD801B0228A2
:100FE00009D838688007F7D50EE0C0F800A0FFF7F1
:100FF000BDFD064605E082E0FFF7B8FD801B022834
:101000007DD838688007F7D42078400768D5DFF8A6
:10101000CCB100270BF13C0BDBF80000C0000BD477
:10102000DBF8001041F08051CBF80010DBF8000035
:10103000012700F0805000906B4E3068C00510D43E
:10104000306840F480703060FFF790FD009005E05C
:10105000FFF78CFD0099401A022850D83068C0056F
:10106000F6D55E4EA0686C3601280FD00528306892
:1010700010D020F001003060306820F004003060B3
:10108000A068B8B1FFF772FD00900FE0306840F043
:101090000100F4E740F004003060F7E7FFF766FD79
:1010A0000099411A41F28830814266D83068800741
:1010B000F4D50EE0FFF75AFD009007E0FFF756FD6C
:1010C0000099411A41F28830814256D83068800731
:1010D000F4D42FB1DBF8001021F08051CBF80010D0
:1010E000A069C8B33D49091D0968C1F381010229FE
:1010F0004AD00228504607D0C8F8600000E03CE023
:10110000FFF734FD04463BE04746C8F86000FFF7B0
:101110002DFD064605E000BFFFF728FD801B0228D5
:101120002BD828688001F7D4D4E907010843A16AC5
:101130002E4A490802EB0141626A41EA82110843E2
:1011400094F82C1040EA0161C9F8001001203866BB
:10115000FFF70CFD044606E03EE000BFFFF706FD8A
:10116000001B022809D828688001F7D534E000BFA9
:10117000FFF7FCFC001B022802D90320BDE8F88F12
:1011800028688001F4D427E00128F7D0D9F80000BE
:10119000E26900F4800191421CD1226A00F03F0113
:1011A000914217D147F6C071626A0140B1EB821FCC
:1011B00010D1A26A4FF0FF3300F4403103EB52022A
:1011C000B1EB024F06D194F82C1000F07060B0EB38
:1011D000016F01D00120D1E70020CFE704380240A1
:1011E00000004742800E4742007000400000FFFFB1
:1011F00010B5401EB0F1807F01D3012010BD4FF02B
:10120000E02460610F21601700F097FC0020A061CE
:1012100007202061002010BD70477047F8B50168B5
:1012200004460868CA684B6910F00F0F4FF00005BC
:1012300059D003F0010602F49077374365D0C10717
:1012400005D0D10503D5616C41F00101616441070E
:1012500005D5D90703D0616C41F0020161648107B3
:1012600005D5D90703D0616C41F004016164010721
:1012700007D502F02001314303D0616C41F0080131
:101280006164616C00293AD0800604D5900602D5CD
:10129000204600F019FB20684069616CC0F38010A3
:1012A000090700D460B3204600F0D0FA20684069F6
:1012B000400621D52068143050E8001F21F040017D
:1012C00040E80012002AF5D1E06BA8B16E49016533
:1012D000E06BFFF7FDF9002811D0E06B016D01B064
:1012E000BDE8F040084783060FD593060DD520468C
:1012F000BDE8F84000F0E8BA2046FFF78EFFF8BDE1
:101300002046FFF78AFF6564F8BD266B2023012E77
:101310007DD1C6067BD5D60679D508684868009089
:1013200048694FF00206400641D5E16B0868406805
:101330000004000CE8D0A28D8242E5D9E085C8699E
:10134000B0F5807F2DD020680C3050E8001F21F4CC
:10135000807140E80012002AF5D12068143050E86E
:10136000001F21F0010140E80012002AF5D1206899
:10137000143050E8001F21F0400140E80012002A1C
:10138000F5D184F84230256320680C3050E8001F06
:1013900021F0100140E80012002AF5D1E06BFFF7C0
:1013A0004EF96663A08DE18D401A81B22AE0A08DCE
:1013B000E18D401A81B2E08D0028A5D00029A3D08C
:1013C00022680C3252E8000F20F4907042E80007C7
:1013D000002FF5D12068143050E8002F22F00102D0
:1013E00040E80027002FF5D184F8423025632068BB
:1013F0000C3050E8002F22F0100240E80023002BB0
:10140000F5D166632046FFF707FFF8BDFFE7050645
:101410002BD5150629D594F841002128F5D1A068CF
:10142000B0F5805F01D12069B0B1206A411C216212
:10143000216800784860E08C401E0004000CE084C5
:10144000E3D12068C16821F08001C1602068C168D3
:1014500041F04001C160D8E7206A0088C0F308006D
:101460004860206A801C2062E5E74006CDD5500622
:10147000CBD5CA68204622F04002CA6084F84130C9
:1014800000F06AF9C1E700003D18000870B50400DB
:1014900004D094F84100002510B106E0012070BD91
:1014A00084F84050204600F023F8242084F84100BE
:1014B0002068C16821F40051C160204600F066FA3E
:1014C0002068016921F4904101612068416921F09F
:1014D0002A0141612068C16841F40051C16065641E
:1014E000202084F8410084F842006563002070BD2C
:1014F0002DE9F04186B0064614216846FEF78AFFC2
:101500002E493068884256D12D480024016841F4A4
:1015100000310160006800F4003005902848103860
:10152000016841F0010101600068694600F00100B6
:1015300005900C2000900220CDE9010403200390C7
:10154000072004901F48FFF721FA204D1E484FF056
:1015500000672860C5E901744FF48068C5E9034855
:101560006C61AC61EC612C6228466C62FFF792F909
:1015700008B1FFF762F8F563AE631348144D1830F5
:10158000E5E802074020A5E81101114845F8144993
:10159000AC61EC612C626C62FFF77CF908B1FFF77B
:1015A0004CF8B563002211462620AE63FFF74CFBD2
:1015B0002620FFF73BFB06B0BDE8F0810044004069
:1015C0004038024000000240886002406000002075
:1015D000C00000202DE9F84F044690F842009A46DA
:1015E00016460D46202802D00220BDE8F88FB5B17E
:1015F000AEB100206064222184F842102063FFF71E
:10160000B5FAA6858146E685A0684FF48058202764
:10161000404501D1206920B12E46002529E0012056
:10162000E3E7002625E04B46002220212046CDF8A6
:1016300000A000F041FA18B184F842700320D4E70A
:1016400026B1A06840451AD038B108E0206840684B
:10165000C0F3080025F8020B08E0206978B1206883
:10166000406800F07F0000BF06F8010BE08D401ECF
:10167000E085E08D0028D6D184F84270B5E7206877
:101680004068F1E770472DE9F843044690F84100BF
:10169000984616460D46202802D00220BDE8F88361
:1016A00085B17EB100206064212084F84100FFF7FD
:1016B0005DFAA6848146E684A0682027B0F5805FA5
:1016C00002D003E00120E9E7206910B12E46002591
:1016D0000EE000260CE08021204600F0EDF9A8B9CC
:1016E000C6B116F8010B21684860E08C401EE0840A
:1016F000E08C4B464FF00002CDF800800028EAD184
:101700004FF04001204600F0D7F940B184F8417015
:101710000320C3E735F8020BC0F30800E3E784F8C1
:1017200041700020BAE790F84130202B01D0022010
:10173000704779B172B101628284C2840021416430
:10174000212180F841100068C16841F08001C1602A
:1017500000207047012070477047FEE70F4810B522
:101760000D4901604FF4E1314160002181600C229C
:10177000C160C0E904128161C161FFF787FE08B151
:1017800072B6FEE7002211462620FFF75DFABDE89B
:1017900010402620FFF74ABA0044004018000020FD
:1017A000FEE7FEE770477047FFF7E6B910B592B065
:1017B00030216846FEF72EFE14210CA8FEF72AFE03
:1017C00018480024016841F080510160006800F071
:1017D000805011901448016821F4404141F40041C7
:1017E00001600068069400F44040119002200090CF
:1017F00001200390102004906846FFF743FB08B1D6
:1018000072B6FEE70F20CDE90C040E940F94002170
:101810000CA81094FFF74AFA002801D072B6FEE730
:1018200012B010BD4038024000700040024801680C
:1018300041F470010160704788ED00E010B5806BE5
:101840000021C185C184FFF7E8FC10BD01680C319F
:1018500051E8002F22F4907241E80023002BF5D1CB
:101860000168143151E8002F22F0010241E8002301
:10187000002BF5D1016B012909D101680C3151E828
:10188000002F22F0100241E80023002BF5D1202187
:1018900080F84210002101637047000070B50546D2
:1018A0004FF47A742346042229460648FFF792FE35
:1018B0000028F7D123462946BDE87040042201489C
:1018C000FFF7E1BE1800002008B590F84210222969
:1018D00001D0022008BD82684FF480539A4201D1A2
:1018E000016921B1816A9A421BD04AB10AE00268BB
:1018F000816A5268C2F308020A80816A891C08E082
:10190000026972B10268526802F07F020A70816A4D
:10191000491C8162C18D491E0904090CC18503D08F
:101920001BE002685268F1E70168CA6822F02002F1
:10193000CA600168CA6822F48072CA6001684A6994
:1019400022F001024A61202180F842100021416307
:10195000026B012A03D0FFF795FE002008BD01634A
:1019600001680C3151E8002F22F0100241E80023F9
:10197000002BF5D101680A68D20602D50A684968C9
:101980000091818DFFF748FCE7E7000070B5044641
:1019900000680169E26821F4405111430161216945
:1019A000A068E26908436169114308432168CA6875
:1019B00049F20C639A430243CA6020684169A269F4
:1019C00021F440711143416131492068884202D0BD
:1019D0003049884202D1FFF713FA01E0FFF700FA1D
:1019E000E2690023192164253226B2F5004F6268AE
:1019F00028D0A0FB0101930F9200FEF73BFC0146AB
:101A0000B0FBF5F06FF01802504301EB800006EBDD
:101A10000010B0FBF5F000F0F002B1FBF5F002EBC6
:101A20000012B1FBF5F06FF01803584301EB800092
:101A300006EB0010B0FBF5F000F00F002168104439
:101A4000886070BDA0FB010192185B41FEF712FC9B
:101A50000146B0FBF5F00201B1FBF5F06FF01803A1
:101A6000584301EB800006EBC000B0FBF5F000F03E
:101A7000F80002EB4002B1FBF5F0584301EB8000A7
:101A800006EBC000B0FBF5F000F00700D6E7000061
:101A9000001001400014014010B50446FEF761FC3F
:101AA000214682B2BDE810404FF47A730148FFF737
:101AB000EABD0000180000202DE9F84398461746BB
:101AC0000D460446089E24E0701C22D0FFF74EF815
:101AD000A0EB0800B0421AD8CEB12068C16849070F
:101AE00017D5802D15D0402D13D00168C9430907A3
:101AF0000FD401680025406800902046FFF7A6FE3D
:101B00000820606484F840500120BDE8F883032079
:101B1000FBE72068006835EA000004D00020B842E6
:101B2000D2D00020F1E70120F9E700000148FFF7DB
:101B300075BB000018000020FEE70907090E002809
:101B400004DB00F1E02080F80014704700F00F0083
:101B500000F1E02080F8141D70470000A0B0FFF7EE
:101B600013F8FFF723FE6748016841F004010160A4
:101B7000016801F004010091016841F080010160F9
:101B8000016801F080010091016841F001010160EC
:101B9000016801F001010091016841F40011016048
:101BA0000068002200F40010009011461020FFF79A
:101BB0004BF81020FFF73AF8002211461120FFF7EA
:101BC00043F81120FFF732F8FFF7C8FD4FF47A749D
:101BD0002046FEF7C9FE18224BA113A8FEF7E0FB32
:101BE0001C224FA10CA8FEF7DBFB2346182213A9E9
:101BF0005248FFF748FD40B9642319220CA94F4809
:101C0000FFF741FD2046FEF7AFFE0125DFF830A1CA
:101C10002C464FF4FA6B04AE4A48FFF73DFF4AA04A
:101C2000FFF73AFF24220A2104A8FEF7EBFB04A8E1
:101C3000FFF734FE46A0FFF72FFF24220A2107A852
:101C4000FEF7E0FB07A8FFF729FE43A0FFF724FFFC
:101C50005846FEF789FEDAE90037002211460DF1F9
:101C60001C09705C13F801C060450ED10020521CA5
:101C700019F800C017F80080C44503D1401C521C5D
:101C8000A042F5DB491CA942EBDB281990420ED19A
:101C900039A0FFF701FF18223CA119A8FEF780FB2D
:101CA000182219A92548FFF73EFD012701E03DA0B4
:101CB00024E02422042101A8FEF7A4FB01A8FFF7D9
:101CC000EDFD01A93BA0FEF7CDFB98B93BA0FFF7C6
:101CD000E3FE242201210AA8FEF794FB0AA8FFF7DD
:101CE000DDFD9DF82800792807D0592805D03BA0B4
:101CF000FFF7D2FE002FDCD18EE73CA0FFF7CCFE31
:101D00008AE7000030380240496E697469616C6985
:101D10007A696E672055415254202E2E2E2E0A00CD
:101D20005541525420697320696E697469616C6908
:101D30007A65642E0A0A0A200000000018000020BC
:101D400000000020241E00080A2049443A20000018
:101D50000A205057443A20000A20436865636B69A3
:101D60006E6720796F7572206964656E7469747925
:101D70002E2E2E2E200000000A4C6F67696E205315
:101D8000756363657373210A000000000A5479705B
:101D900065206578697420746F206C6F67206F759B
:101DA00074210A000A4C6F67696E204661696C21D4
:101DB0000A00000065786974000000000A0A446F98
:101DC00020796F752077616E7420746F2065786953
:101DD000742028792F6E293A2000000057656C6323
:101DE0006F6D65204261636B210A00004C6F6720B4
:101DF0006F7574210A0000004FF04070E1EE100A88
:101E000070470006101600061016000000000000C3
:101E10000000010203040607080900000000010297
:101E2000030400000A202D2D2D2D2D2D2D2D2D2DBF
:101E30002D2D2D2D2D2D2D2D2D2D2D2D2D2D2D2DD2
:101E40002D2D2D2D2D2D2D2D2D2D2D2D2D2D2D2DC2
:101E50002D2D2D2D2D2D2D2D0A506C656173652096
:101E60004C6F6720696E20796F7572206163636FB4
:101E7000756E742E200000003132333400000000F3
:101E8000726F6F7400000000A81E000800000020A0
:101E900018000000D0010008C01E00081800002033
:101EA00068070000EC010008801E0008781E00088A
:101EB0000100000010000000000000000024F400F9
:040000050800019559
:00000001FF
